:1000000079C0000093C0000091C000008FC00000C4
:100010008DC000008BC00000B2C0000087C000008F
:1000200085C0000083C0000081C000007FC00000C8
:100030007DC000007BC0000079C0000077C00000D8
:1000400075C0000073C0000071C000006FC00000E8
:100050006DC000006BC0000069C0000067C00000F8
:1000600065C0000063C0000061C000005FC0000008
:100070005DC000005BC0000059C0000058C0000017
:1000800055C0000053C0000051C000004FC0000028
:100090004DC000004BC0000049C0000047C0000038
:1000A00045C0000043C0000041C000003FC0000048
:1000B0003DC000003BC0000039C0000037C0000058
:1000C00035C0000033C0000031C000002FC0000068
:1000D0002DC000002BC0000029C0000027C0000078
:1000E00025C0000023C0000021C000001FC0000088
:1000F0001DC0000011241FBECFEFCDBFDFE7DEBF64
:100100008091400080934000811105C098ED21E06E
:1001100094BF209341008CBB20E7A0E0B0E701C072
:100120001D92A930B207E1F733D121C269CF1F92E6
:100130000F920FB60F9211248F939F93AF93BF939B
:100140008091057090910670A0910770B091087031
:100150000196A11DB11D8093057090930670A09328
:100160000770B093087081E08093260BBF91AF9128
:100170009F918F910F900FBE0F901F9018951F9217
:100180000F920FB60F9211248F929F92AF92BF924F
:10019000CF92DF92EF92FF922F933F934F935F9313
:1001A0006F937F938F939F93AF93BF93EF93FF933F
:1001B00091E0909353018FEF8093670480934704FD
:1001C00080930704809327049093870480E38093AF
:1001D000A704809104708F5F8032D8F480930470FC
:1001E000FF91EF91BF91AF919F918F917F916F910F
:1001F0005F914F913F912F91FF90EF90DF90CF90C3
:10020000BF90AF909F908F900F900FBE0F901F9058
:100210001895109204706091007070910170809137
:100220000270909103706F5F7F4F8F4F9F4F20E060
:1002300033EA42E050E060D14B015C0180920070F3
:1002400090920170A0920270B09203708091880425
:1002500082FD2FC0C501B40128E730E040E050E046
:100260004BD1CA01B9016F5F7F4F8F4F9F4F2CE376
:1002700030E040E050E040D16B017C01C501B401A9
:1002800020E23CE140E050E037D1ACE3B0E056D1B1
:10029000A7019601260F371F481F591FA8E7B0E096
:1002A0004DD16093007070930170809302709093B1
:1002B00003708091880483FD14C080910070909138
:1002C0000170A0910270B0910370805E934EAF4FA9
:1002D000BF4F8093007090930170A0930270B09311
:1002E0000370C0900070D0900170E0900270F090A8
:1002F0000370C701B60128E730E040E050E0FCD0D1
:10030000CA01B9012CE330E040E050E0F5D0B62E50
:10031000C701B60120E23CE140E050E0EDD0CA0167
:10032000B90128E130E040E050E0E6D0862F2AE035
:10033000622FD6D0E82FF0E0EE58FA478081809304
:100340006404E92FF0E0EE58FA478081809344047A
:100350008B2DC6D0E82FF0E0EE58FA4780818093CD
:100360000404E92FF0E0EE58FA47808180932404DA
:10037000F694E794D794C794C29420EFC2229C2DA0
:100380009071C92E86958072C82AC092A40428CF85
:1003900088ED94E284BF9093680021E02093030AE3
:1003A0008EEF8093260A8093270A9BE09093000AA1
:1003B00032E03093E6052093430A8093660A8093E7
:1003C000670A9093400A9093E705E0E0FBE027E09E
:1003D0009EEF85E021839487158680837096E034B4
:1003E0003BE0F307B9F72FEF3FE02093AA0B3093E0
:1003F000AB0B90E89093820B1092810B2BEF33E0C4
:100400002093AE0B3093AF0B91E79093800B8093CA
:1004100002069EE09093050690E690930306809373
:1004200000068091B000887F85608093B000809145
:10043000B200887F85608093B2008FED9EE280934A
:100440002C0B90932D0B91E09093250B1092210B88
:1004500083E08093200B78948FEF809360048093E7
:10046000400480930004809320049093800480E3F0
:100470008093A00488E080939304809392048091F9
:100480005000846080935000809150008160809380
:10049000500080917C008E7F98ED94BF80937C000B
:1004A0008091650083FDFCCF80917C00826098ED97
:1004B00094BF80937C0080917C00816094BF809386
:1004C0007C00809141018111FCCF82E08093470143
:1004D00081E08093520181E4809350018895FECFA2
:1004E000991B79E004C0991F961708F0961B881F86
:1004F0007A95C9F780950895A1E21A2EAA1BBB1B15
:10050000FD010DC0AA1FBB1FEE1FFF1FA217B307DF
:10051000E407F50720F0A21BB30BE40BF50B661FF5
:10052000771F881F991F1A9469F7609570958095B9
:1005300090959B01AC01BD01CF01089509D0A59F05
:10054000900DB49F900DA49F800D911D11240895CE
:10055000A29FB001B39FC001A39F700D811D112404
:10056000911DB29F700D811D1124911D0895F89465
:02057000FFCFBB
:0F0572007E306D79335B5F707F7B0001634E3E9F
:00000001FF
