:1000000019C02FC02EC02DC02CC02BC02AC00DC2BD
:1000100028C027C026C025C024C03BC222C021C0A2
:1000200020C01FC01EC04BC21CC01BC01AC019C0BC
:1000300018C017C011241FBE1FE3A0E0BFE3EEEFFE
:10004000FDE002C005900D92A030B107D9F72FE373
:10005000A0E0BFE301C01D92AF30B207E1F70E94FC
:100060007F00CECFFFCF8F3F79F0982F99237AF082
:100070008D3708F041C09927880F991F8650934704
:10008000FC018081918108958FEF9FEF0895982F53
:100090009072282F20743327220F331F220F331F13
:1000A000903011F020643061982F9071903009F0F9
:1000B0002A60982F990F9071692F7727982F947045
:1000C000492F5527542F4427462B572B982F92956D
:1000D000907F990F990F9078692F7727642B752B54
:1000E00081709927982F8827990F990F990F862B40
:1000F000972B822B932B089580E090E008952F9208
:100100003F924F925F926F927F928F929F92AF92A7
:10011000BF92CF92DF92EF92FF920F931F93CF93F4
:10012000DF93CDB7DEB7C054D040CDBFDEBF8FB7B1
:10013000F89490910E3F913019F48FBF0E942003E4
:1001400091E090930E3F8FBFB0900013A0900113E9
:10015000F0900213E0900313CE0185964AE050E040
:100160004C016FEF0E94290300E010E0C801680114
:10017000CC0CDD1C3C01C401C80ED91ED801A55F02
:10018000BC4E8C910E943300F60180839183C301A1
:100190000196043011058C0150F3CE01C1962091D7
:1001A0001013E0E0F0E02F3F61F425E030E0412D56
:1001B0004530C9F0DC01AE0FBF1F4C93319643951B
:1001C000F7CF20E130E0E031F10568F4DF01A05F16
:1001D000BC4E4C914F3F31F0DC01AE0FBF1F4C9332
:1001E0003196F1CF9F012FA738ABCE0105966C0158
:1001F0000C968E01015D1F4F42E150E0B8010E9454
:100200002C0388E79A2D9F3F09F0892F8CA382E465
:100210009B2D9F3F09F0892F8BA32F2D33278E2DE8
:100220009927982F8827822B932B2FEF8F3F9207A8
:1002300041F09C01232F3327982F8827822B932B63
:1002400002C080E197E28D839E83C6010296BE01C3
:100250006B5D7F4F4AE050E04C010E942C0380917F
:1002600082128370823009F0DCC088ED84BF109266
:10027000600084BF91E09093610084BFF92E909359
:1002800062008BA193E090932104880F80931C0857
:1002900010921E0881EE809319088AE18093010470
:1002A0008093060480E38093200884E880932108EB
:1002B0008091200881608093200880E090E00E9477
:1002C00024022D813E812939310518F42FEF3FEFAB
:1002D00008C060E876E988E990E040E050E00E94DC
:1002E000260320934C0A30934D0AF092450A10924F
:1002F000410A8091400A81608093400A8CA19CE071
:100300009093210490E49093010492E09093A000D4
:1003100091E4909380068093810684E08093250485
:1003200010924701F092520181E280935001FFB692
:10033000F89481E09FE34AE050E05C01B4014A0197
:100340000E942C03FFBE7894C6010E968B839C837B
:100350008095909589839A83A0E0BFE389899A89E3
:10036000292F22230AF459C029813A8128173907F5
:1003700008F453C02B813C81280F391F811591054A
:1003800069F3EB81FC816F018191853008F03FC0FA
:100390003F0119012D01FFB6F894C801B501A40170
:1003A0000E942C03D6012C91822F9927253008F02A
:1003B00036C0880F991F800F911FFC012081318169
:1003C000FFBE4C91842F9927453008F028C02A7D24
:1003D0003D71880F991F8C509247FC01808191815B
:1003E000822B932B0E942402D2019101F3018FB73B
:1003F000F8940FB6F8949C910FBE903019F48FBF0B
:100400008895F5CF0FB6F8941C920FBE8FBFE217F8
:10041000F3076F0109F4A2CFB7CF0E9418030E941F
:1004200024038BE390E00E941E030F920FB60F92FD
:100430008F9381E0809353018CE0809327048F9108
:100440000F900FBE0F90189520E120930604209185
:10045000230820722030D9F3909324089091230828
:1004600090729030D9F38093240880912308807291
:100470008030D9F38091230880748030D9F380E4F0
:100480008093230880E18093050400008093060494
:1004900008950F920FB60F928F93AF93BF9381E0A1
:1004A0008093460AA0E0BFE30FB6F8948C930FBE8A
:1004B000BF91AF918F910F900FBE0F9018950F9233
:1004C0000FB60F921F9211240F931F932F933F93F8
:1004D0004F935F936F937F938F939F93AF93BF934C
:1004E000EF93FF9380911B08982F9C709030B1F090
:1004F00016E010931A08FF91EF91BF91AF919F9171
:100500008F917F916F915F914F913F912F911F91AB
:100510000F911F900F900FBE0F901895982F907409
:100520009030E1F4982F99231AF78270803009F007
:1005300027C080911D0890910B3F903009F423C093
:1005400020910C3F30910D3F923009F039C02115B8
:10055000310509F035C0809381063FC016E0982F21
:1005600099230AF4C6CF20E030E020930C3F30936B
:100570000D3F10920B3F8170803009F4BACF3AC022
:1005800010921D0837C0803181F08F3791F413E04D
:1005900010930B3F0FB7F89481E09FE34AE050E0DF
:1005A000612D0E9429030FBFA4CF82E080930B3FEF
:1005B00021C091E090930B3F20910C3F30910D3F73
:1005C00016E0913009F095CF2530310508F091CF34
:1005D0001FB7F8940E94FE021FBF80910C3F9091BC
:1005E0000D3F2FEF8F3F920739F0019680930C3F1C
:1005F00090930D3F13E07DCF0E9416030F931F933E
:1006000000910C3F10910D3F0530110560F4000F73
:10061000111F0F5F104C0E943300F80180839183FB
:100620001F910F910895C8010E9424030E941C038A
:100630000E941A030E9432000E9432000E941C0392
:100640008BE290E00E941E030E941C030E945A0647
:1006500008950E94D00308950E9430030895FFCFAB
:100660004F925F926F927F928F929F92AF92BF92C2
:10067000CF92DF92EF92FF920F931F93FB014031D5
:10068000510508F437C08F01BC01617070709C0186
:10069000260F371F79018217930740F4FC01D80118
:1006A0002D9121939701E217F307D0F3461B570BC7
:1006B0009A012E7FD7014901A20FB31FF801E60F5F
:1006C000F71F9F012170307021153105A9F45F01DA
:1006D00097012A173B0708F047C0F5012191319196
:1006E000BF01F701219331937F01EA17FB07FB015B
:1006F000A8F33AC0DC013DC06C015F01E21BF30BC3
:100700003F018181282F3327322F2227B701CB01C8
:1007100002968A179B07C8F4F3017C01232F332725
:100720003B012F0102811381B801762F6627622BCE
:10073000732BF30160837183F201029632968A175C
:100740009B07B701980148F303C089017B01F301BE
:10075000012F112782819927982F8827802B912B91
:10076000F70180839183C601F501E80DF91D417001
:1007700050704A0F5B1FA417B50718F421912D93F1
:10078000FACF1F910F91FF90EF90DF90CF90BF9025
:10079000AF909F908F907F906F905F904F90089553
:1007A0000F931F934031510508F426C09C0121701E
:1007B0003070FC01E20FF31F8E179F0728F4DC0155
:1007C0006D93AE17BF07E0F3421B530BDA01AE7F08
:1007D000AE0FBF1FEA17FB0760F48B0110709B017F
:1007E000322F2227202B312B21933193EA17FB073D
:1007F000D8F34170507001C0DC014A0F5B1FA41791
:10080000B50710F46D93FBCF1F910F9108952F92B0
:100810003F924F925F926F927F928F929F92AF9290
:10082000BF92CF92DF92EF92FF920F931F93CF93DD
:10083000DF93CDB7DEB72397CDBFDEBF1901280107
:100840003A0121E0641475046205730508F0212D56
:100850002170A0E0B0E0203021F09D0153014B0158
:1008600008C28A839B836115710509F041C0C301E9
:1008700096958795862997299C01369527953695D3
:100880002795282B392BA901529542954F70452762
:100890005F704527422B532BCA01892F9927842B40
:1008A000952B809590959C013695279525753575E6
:1008B000821B930B9C0123733373969587959695B2
:1008C000879583739373820F931F9C0132952295B2
:1008D0002F7023273F702327280F391F2F703F7059
:1008E000C901892F9927820F931F907040963FC0AE
:1008F000CB0196958795862B972B9C01369527954E
:1009000036952795282B392BA901529542954F7082
:1009100045275F704527422B532BCA01892F992702
:10092000842B952B809590959C0136952795257560
:100930003575821B930B9C012373337396958795B2
:100940009695879583739373820F931F9C013295BD
:1009500022952F7023273F702327280F391F2F70D0
:100960003F70C901892F9927820F931F90708D01C5
:100970002114310409F041C09201369527952429AC
:100980003529A9015695479556954795422B532BE6
:10099000FA01F295E295EF70EF27FF70EF27E42B55
:1009A000F52B9F01232F33272E2B3F2B209530959E
:1009B000A9015695479545755575241B350BA90119
:1009C0004373537336952795369527952373337361
:1009D000240F351FA901529542954F7045275F702E
:1009E0004527420F531F4F705F70DA01AB2FBB27B3
:1009F000A40FB51FB07050963FC091013695279552
:100A000022293329A9015695479556954795422B9A
:100A1000532BFA01F295E295EF70EF27FF70EF2765
:100A2000E42BF52B9F01232F33272E2B3F2B2095D3
:100A30003095A9015695479545755575241B350B7D
:100A4000A9014373537336952795369527952373DC
:100A50003373240F351FA901529542954F704527D6
:100A60005F704527420F531F4F705F70DA01AB2F45
:100A7000BB27A40FB51FB07021E0A817B907000766
:100A8000110708F0212D2170203009F011C1FD015E
:100A9000E81BF90BE0309201A10171F08A1B920171
:100AA000A101839591E0803009F0912D220F331F31
:100AB000441F551F9130A9F781E062167306640741
:100AC000750708F0812D8170803029F0E115F1055E
:100AD00009F4EEC03197E03059F08E2F72016101B8
:100AE000EE0CFF1CCC1CDD1C8A958030C9F702C0BF
:100AF000720161016E187F086C097D09A0E0B0E009
:100B000021E030E0E03041F08E2F220F331FAA1F8A
:100B1000BB1F8A958030C9F781E0641475046205B3
:100B2000730508F0812D8170803031F0CD01D9013D
:100B30009C0153014B019BC081E09D2D99230AF438
:100B4000812D8170803041F08901AD01CD01D90145
:100B50009C0153014B014CC0E115F10509F4A8C0FB
:100B6000D694C794F794E794319780E090E001E041
:100B700010E0E03041F04E2F000F111F881F991F29
:100B80004A954030C9F75301AE18BF084B018C0895
:100B90009D0841E04983492D442351E00AF4512D39
:100BA0005170503009F45301503009F44B01A41432
:100BB000B5048204930410F0412D4983652F503011
:100BC000AC0111F440E050E03C018981817060305B
:100BD000B80111F460E070E04A2B5B2B622B732BA1
:100BE0009A0180308A819B81DB01A30109F041C019
:100BF0001901CD010150104040405040E115F10570
:100C000009F41FC0DF01AA0CBB1C881C991C9501AC
:100C10002E193F09B4016C097D092F5F3F4F6F4FBB
:100C20007F4FF1E0772E77200AF0F12DF170F03050
:100C300009F44B01F03009F459011197A115B105E0
:100C400011F70A211B21DC01A02BB12B48215921CE
:100C50009101242B352BE03051F08A819B819694B1
:100C60008794B794A794EA95E030C9F702C08A81C7
:100C70009B81FC01A482B582A083B1838682978286
:100C8000228333832396CDBFDEBFDF91CF911F91A7
:100C90000F91FF90EF90DF90CF90BF90AF909F901B
:100CA0008F907F906F905F904F903F902F9008951E
:100CB0000E942F030F931F93CF93DF93CDB7DEB71F
:100CC0002897CDBFDEBFFA01DC01AB01CE01019652
:100CD000BD0189019F010E9407048F8198856D8164
:100CE0007E814B815C8129813A812896CDBFDEBF10
:0A0CF000DF91CF911F910F9108953D
:100CFA00D2054200500D5209C2089209920D4201D2
:100D0A00D20DD2090000000000000000000000001F
:100D1A0000000000000000000000000000000000C9
:100D2A0000000000000000000000000000000000B9
:100D3A0000004200C0000000000000000000801017
:100D4A0090055201C00942080A0000080A00400C36
:100D5A00D2054200500D5209C2089209920D420171
:100D6A00D20DD20908100810100410081200400D04
:100D7A000000C20D920C9005520C900D800D920D40
:100D8A00C20C80045200820D9004C005020CD205E8
:100D9A00C00DC209000C9209900CD204D20492042C
:100DAA00C20CD208500D90058208520100001000B2
:100DBA000000C20D920C100C520C900D800DD2093D
:100DCA00820C00045200820D8004C201020C120C33
:100DDA00C00DC209000C9209900C120412045204AC
:100DEA00C20CD208500D000080040020010004004B
:040DFA0020000002D3
:00000001FF
