:1000000019C035C034C033C032C031C030C031C077
:100010002EC02DC02CC02BC02AC062C128C027C052
:1000200026C025C024C080C022C021C020C01FC05F
:100030001EC01DC011241FBECFEFCDBFDFE3DEBF4A
:100040001FE3A0E0BFE3EAE4FEE002C005900D92EA
:10005000A030B107D9F72FE3A0E0BFE301C01D92A4
:10006000AF30B207E1F701D06CC60E948601C8CF5D
:10007000FFCF0F920FB60F928F9381E080935301C1
:100080008CE0809327048F910F900FBE0F901895EE
:100090008F3F79F0982F99237AF08D3708F041C07F
:1000A0009927880F991F8A5B9247FC018081918173
:1000B00008958FEF9FEF0895982F9072282F207446
:1000C0003327220F331F220F331F903011F020648B
:1000D0003061982F9071903009F02A60982F990F15
:1000E0009071692F7727982F9470492F5527542F97
:1000F0004427462B572B982F9295907F990F990F55
:100100009078692F7727642B752B81709927982F0A
:100110008827990F990F990F862B972B822B932B5A
:10012000089580E090E008950F920FB60F921F920D
:1001300011240F931F932F933F934F935F936F93CC
:100140007F938F939F93AF93BF93EF93FF93809190
:100150001B08982F9C709030B1F016E010931A088D
:10016000FF91EF91BF91AF919F918F917F916F918F
:100170005F914F913F912F911F910F911F900F9081
:100180000FBE0F901895982F90749030E1F4982F2F
:1001900099231AF78270803009F027C080911D08DA
:1001A0009091003F903009F423C02091013F30919D
:1001B000023F923009F039C02115310509F035C0F0
:1001C000809381063FC016E0982F99230AF4C6CF8A
:1001D00020E030E02093013F3093023F1092003F37
:1001E0008170803009F4BACF3AC010921D0837C030
:1001F000803181F08F3791F413E01093003F0FB7F7
:10020000F89485E09FE34AE050E0612D0E942A03C4
:100210000FBFA4CF82E08093003F21C091E0909374
:10022000003F2091013F3091023F16E0913009F0EC
:1002300095CF2530310508F091CF1FB7F8940E9473
:1002400033011FBF8091013F9091023F2FEF8F3FFD
:10025000920739F001968093013F9093023F13E09B
:100260007DCF0E9413030F931F930091013F1091C4
:10027000023F0530110560F4000F111F0B5F104C99
:100280000E944800F801808391831F910F91089587
:10029000C8010E94210320E1209306042091230835
:1002A00020722030D9F39093240890912308907203
:1002B0009030D9F380932408809123088072803095
:1002C000D9F38091230880748030D9F380E480933F
:1002D000230880E1809305040000809306040895BC
:1002E0000F920FB60F928F93AF93BF9381E08093DD
:1002F000460AA3E0BFE30FB6F8948C930FBEBF91FC
:10030000AF918F910F900FBE0F9018952F923F9243
:100310004F925F926F927F928F929F92AF92BF9215
:10032000CF92DF92EF92FF920F931F93CF93DF93C1
:10033000CDB7DEB7C054D040CDBFDEBF8FB7F89485
:100340009091043F913019F48FBF0E941D0391E0FA
:100350009093043F8FBFB0900013A0900113F090D2
:100360000213E09003138E010B5D1F4F4AE050E033
:10037000C8016FEF0E942A036801C8010A968C0128
:10038000ABE0B3E18D914D010E944800D6018D9301
:100390009D936D01C801A817B907D40199F7DE0133
:1003A000D196809110138F3F41F445E050E0212D0C
:1003B0002530B9F02D932395FBCF80E090E040E10C
:1003C00050E08031910569F0FC01E05FFC4E208136
:1003D0002F3F31F0FD01E80FF91F20830196F1CF87
:1003E000AC014FA758ABCE0105966C010C968E015F
:1003F000015D1F4F42E150E0B8010E94230388E7EE
:100400009A2D9F3F09F0892F8CA388E69B2D9F3F53
:1004100009F0892F8BA32F2D33278E2D9927982F05
:100420008827822B932B2FEF8F3F920741F09C015F
:10043000232F3327982F8827822B932B02C080E10C
:1004400097E28D839E83C6010296BE016B5D7F4F4E
:100450004AE050E04C010E94230380918212837095
:10046000823009F0DCC088ED84BF1092600084BF48
:1004700091E09093610084BFF92E909362008BA16C
:1004800093E090932104880F80931C0810921E081B
:1004900081EE809319088AE1809301048093060419
:1004A00080E38093200884E88093210880912008CD
:1004B00081608093200880E090E00E944B012D81B4
:1004C0003E812939310518F42FEF3FEF08C060E86D
:1004D00076E988E990E040E050E00E94260320930E
:1004E0004C0A30934D0AF092450A1092410A8091CD
:1004F000400A81608093400A8CA19CE09093210483
:1005000090E49093010492E09093A00091E4909382
:1005100080068093810684E0809325041092470131
:10052000F092520181E280935001FFB6F89485E089
:100530009FE34AE050E05C01B4014A010E942303BA
:10054000FFBE7894C6010E968B839C838095909510
:1005500089839A83A3E0BFE389899A89292F22237B
:100560000AF459C029813A812817390708F453C081
:100570002B813C81280F391F8115910569F3EB818F
:10058000FC816F018191853008F03FC03F01190166
:100590002D01FFB6F894C801B501A4010E94230300
:1005A000D6012C91822F9927253008F036C0880F6C
:1005B000991F800F911FFC0120813181FFBE4C915A
:1005C000842F9927453008F028C02A7D3D71880F77
:1005D000991F805C9147FC0180819181822B932B34
:1005E0000E944B01D2019101F3018FB7F8940FB62D
:1005F000F8949C910FBE903019F48FBF8895F5CF79
:100600000FB6F8941C920FBE8FBFE217F3076F016D
:1006100009F4A2CFB7CF0E9419030E9421038BE3F4
:1006200090E00E9417030E9415030E9438000E9468
:1006300015030E941B030E9438008BE290E00E9489
:1006400017030E9415030E94500308950E942D0372
:100650000895FFCF0E94FF0308950F931F93CF9338
:10066000DF93CDB7DEB72897CDBFDEBFFA01DC013F
:10067000AB01CE010196BD0189019F010E94490491
:100680008F8198856D817E814B815C8129813A8142
:100690002896CDBFDEBFDF91CF911F910F910895B6
:1006A0004F925F926F927F928F929F92AF92BF9282
:1006B000CF92DF92EF92FF920F931F93FA018C017A
:1006C000E031F10508F43AC03B01BF01A8014170D7
:1006D00050709801240F351F49010217130768F461
:1006E000DA01C801F30121917F01FC012193CF01BF
:1006F000F7011197A115B105B1F79B01241B350B2B
:1007000029012E7F6401C20ED31ED301A40FB51F91
:10071000BD0161707070611571057D0191F48C14DB
:100720009D045601D40108F043C0F7014191519155
:100730004D935D93AA15BB05C8F33AC0DB01580180
:100740003DC06C917727762F6627F40132965601CB
:10075000EC15FD0508F01FC0F301E40FF51F3196FD
:100760003401C401672F7727419151916F01FA013C
:10077000FE2FEE27E62BF72BD301ED93FD93049686
:100780008A159B05F6013D01CD01BA0158F3329758
:10079000BA01430102C0FD013197672F77274281DB
:1007A0005527542F4427462B572BF4014083518360
:1007B000D701A20FB31FF201E170F070A5019A01F9
:1007C0002E0F3F1F4217530750F42D91AF01F50133
:1007D00021935F01FA013197E115F105B1F7C801E5
:1007E0001F910F91FF90EF90DF90CF90BF90AF904F
:1007F0009F908F907F906F905F904F900895EF92B1
:10080000FF920F931F93FA01E031F10508F430C015
:10081000AF019C0121703070FC01E20FF31F8F01CA
:100820008E179F0738F4D901FC0161931197A11528
:10083000B105D9F7FA01E21BF30BDF01AE7FA00F80
:10084000B11F78010A171B0780F4AB0150709B01A0
:10085000322F2227242B352BAD01D7012D933D9329
:100860007D01A417B507DA01B8F3E170F07001C09B
:10087000DC019D012E0F3F1FA217B30728F46D93D3
:100880003197E115F105D9F71F910F91FF90EF9086
:1008900008952F923F924F925F926F927F928F9224
:1008A0009F92AF92BF92CF92DF92EF92FF920F93FF
:1008B0001F93CF93DF93CDB7DEB72297CDBFDEBFB7
:1008C00028011A0141E0241435046207730708F077
:1008D000412D417000E010E0403029F098015101B5
:1008E0004B0128010DC289839A836115710509F0B6
:1008F00041C0C1019695879582299329AC015695EF
:10090000479556954795482B592BFA01F295E29554
:10091000EF70EF27FF70EF27E42BF52BCF01892F26
:1009200099278E2B9F2B80959095AC0156954795D6
:1009300045755575841B950BAC01437353739695A0
:1009400087959695879583739373840F951FAC0154
:10095000529542954F7045275F704527480F591FA4
:100960004F705F70CA01892F9927840F951F90706F
:1009700040963FC0CB0196958795862B972BAC016F
:100980005695479556954795482B592BFA01F29560
:10099000E295EF70EF27FF70EF27E42BF52BCF01E7
:1009A000892F99278E2B9F2B80959095AC0156957A
:1009B000479545755575841B950BAC01437353736F
:1009C000969587959695879583739373840F951F56
:1009D000AC01529542954F7045275F704527480FEF
:1009E000591F4F705F70CA01892F9927840F951F77
:1009F00090702115310509F041C0A2015695479527
:100A000044295529FA01F695E795F695E795E42BE3
:100A1000F52BDF01B295A295AF70AB27BF70AB2766
:100A2000AE2BBF2BAD01452F55274A2B5B2B409595
:100A30005095FA01F695E795E575F5754E1B5F0B38
:100A4000FA01E373F37356954795569547954373AB
:100A500053734E0F5F1FDA01B295A295AF70AB27AB
:100A6000BF70AB27A40FB51FAF70BF70FD01EF2F94
:100A7000FF27EA0FFB1FF07070963FC0A901569543
:100A80004795422B532BFA01F695E795F695E79596
:100A9000E42BF52BDF01B295A295AF70AB27BF70A9
:100AA000AB27AE2BBF2BAD01452F55274A2B5B2B18
:100AB00040955095FA01F695E795E575F5754E1B4D
:100AC0005F0BFA01E373F373569547955695479577
:100AD000437353734E0F5F1FDA01B295A295AF7047
:100AE000AB27BF70AB27A40FB51FAF70BF70FD0160
:100AF000EF2FFF27EA0FFB1FF07041E0E817F9071F
:100B00000007110708F0412D68014170403009F0DD
:100B100016C1AF01481B590B7A014030D201A9011F
:100B200079F0182F1E1BD201A901139501E0103096
:100B300009F0012DAA0FBB1F441F551F0130A9F753
:100B400011E02A163B066407750708F0112D117095
:100B5000103071F041E0E817F907CC04DD0409F02A
:100B6000412D41704030F70109F0E9C0319701C0D3
:100B7000F701E03059F08E2F72016901EE0CFF1C75
:100B8000CC1CDD1C8A958030C9F702C07201690156
:100B90002E183F086C097D09A0E0B0E081E090E0EC
:100BA000E03041F04E2F880F991FAA1FBB1F4A95B6
:100BB0004030C9F741E0241435046207730708F098
:100BC000412D4170403029F02C019D0151014B0114
:100BD00095C041E05D2D55230AF4412D4170403010
:100BE00041F03F01FC018D012C019D0151014B01A0
:100BF0004CC0E115F10509F4A2C0D694C794F7944E
:100C0000E794319700E010E0E030AF0159F0E1E007
:100C1000F0E03A01EE0FFF1F001F111F4A95403010
:100C2000C9F703C03A01E1E0F0E05101AE18BF0896
:100C30004B018C089D0851E0492D442341E00AF402
:100C4000412D4170403009F45101403009F44B010D
:100C5000A414B5048206930608F0512D4030980183
:100C600011F420E030E0517040302F0129F4652F5D
:100C700040E050E02A01562F2A2B3B2B482A592AC4
:100C8000503089819A8109F03BC0E150F04000402A
:100C90001040C30181159105E1F0AA0CBB1C881C12
:100CA000991CA5014E195F09B4016C097D094F5FBC
:100CB0005F4F6F4F7F4FA1E0B72FBB230AF0A12DED
:100CC000A170A03009F44B01A03009F45A0101973A
:100CD000E1CFEA21FB214E2A5F2A08211921202B8E
:100CE000312B462D403051F089819A81969487941A
:100CF000B794A7944A954030C9F702C089819A8178
:100D0000FC01A482B582408251828682978222832E
:100D100033832296CDBFDEBFDF91CF911F910F911C
:100D2000FF90EF90DF90CF90BF90AF909F908F900B
:100D30007F906F905F904F903F902F9008950E940A
:060D40002903F894FFCF27
:100D4600D2054200500D5209C2089209920D420185
:100D5600D20DD209000000000000000000000000D3
:100D6600000000000000000000000000000000007D
:100D7600000000000000000000000000000000006D
:100D860000004200C00000000000000000008010CB
:100D960090055201C00942080A0000080A00400CEA
:100DA600D2054200500D5209C2089209920D420125
:100DB600D20DD20908100810100410081200400DB8
:100DC6000000C20D920C9005520C900D800D920DF4
:100DD600C20C80045200820D9004C005020CD2059C
:100DE600C00DC209000C9209900CD204D2049204E0
:100DF600C20CD208500D9005820852010000100066
:100E06000000C20D920C100C520C900D800DD209F0
:100E1600820C00045200820D8004C201020C120CE6
:100E2600C00DC209000C9209900C1204120452045F
:100E3600C20CD208500D00008004002001000400FE
:040E46002000000286
:00000001FF
